{
  "_format": "hh-sol-artifact-1",
  "contractName": "BlocklanceEscrow",
  "sourceName": "contracts/BlocklanceEscrow.sol",
  "abi": [
    {
      "inputs": [
        {
          "internalType": "address",
          "name": "_client",
          "type": "address"
        },
        {
          "internalType": "address",
          "name": "_freelancer",
          "type": "address"
        },
        {
          "internalType": "string",
          "name": "_projectId",
          "type": "string"
        }
      ],
      "stateMutability": "payable",
      "type": "constructor"
    },
    {
      "anonymous": false,
      "inputs": [
        {
          "indexed": true,
          "internalType": "address",
          "name": "client",
          "type": "address"
        },
        {
          "indexed": false,
          "internalType": "uint256",
          "name": "amount",
          "type": "uint256"
        },
        {
          "indexed": false,
          "internalType": "string",
          "name": "projectId",
          "type": "string"
        }
      ],
      "name": "Funded",
      "type": "event"
    },
    {
      "anonymous": false,
      "inputs": [
        {
          "indexed": true,
          "internalType": "address",
          "name": "freelancer",
          "type": "address"
        },
        {
          "indexed": false,
          "internalType": "uint256",
          "name": "amount",
          "type": "uint256"
        },
        {
          "indexed": false,
          "internalType": "string",
          "name": "projectId",
          "type": "string"
        }
      ],
      "name": "Released",
      "type": "event"
    },
    {
      "inputs": [],
      "name": "amount",
      "outputs": [
        {
          "internalType": "uint256",
          "name": "",
          "type": "uint256"
        }
      ],
      "stateMutability": "view",
      "type": "function"
    },
    {
      "inputs": [],
      "name": "client",
      "outputs": [
        {
          "internalType": "address",
          "name": "",
          "type": "address"
        }
      ],
      "stateMutability": "view",
      "type": "function"
    },
    {
      "inputs": [],
      "name": "freelancer",
      "outputs": [
        {
          "internalType": "address",
          "name": "",
          "type": "address"
        }
      ],
      "stateMutability": "view",
      "type": "function"
    },
    {
      "inputs": [],
      "name": "fundEscrow",
      "outputs": [],
      "stateMutability": "payable",
      "type": "function"
    },
    {
      "inputs": [],
      "name": "funded",
      "outputs": [
        {
          "internalType": "bool",
          "name": "",
          "type": "bool"
        }
      ],
      "stateMutability": "view",
      "type": "function"
    },
    {
      "inputs": [],
      "name": "getBalance",
      "outputs": [
        {
          "internalType": "uint256",
          "name": "",
          "type": "uint256"
        }
      ],
      "stateMutability": "view",
      "type": "function"
    },
    {
      "inputs": [],
      "name": "projectId",
      "outputs": [
        {
          "internalType": "string",
          "name": "",
          "type": "string"
        }
      ],
      "stateMutability": "view",
      "type": "function"
    },
    {
      "inputs": [],
      "name": "releaseFunds",
      "outputs": [],
      "stateMutability": "nonpayable",
      "type": "function"
    },
    {
      "inputs": [],
      "name": "released",
      "outputs": [
        {
          "internalType": "bool",
          "name": "",
          "type": "bool"
        }
      ],
      "stateMutability": "view",
      "type": "function"
    }
  ],
  "bytecode": "0x608060405260405162001184380380620011848339818101604052810190620000299190620002f3565b826000806101000a81548173ffffffffffffffffffffffffffffffffffffffff021916908373ffffffffffffffffffffffffffffffffffffffff16021790555081600160006101000a81548173ffffffffffffffffffffffffffffffffffffffff021916908373ffffffffffffffffffffffffffffffffffffffff1602179055508060049081620000bb9190620005b9565b506000600360006101000a81548160ff0219169083151502179055506000600360016101000a81548160ff021916908315150217905550505050620006a0565b6000604051905090565b600080fd5b600080fd5b600073ffffffffffffffffffffffffffffffffffffffff82169050919050565b60006200013c826200010f565b9050919050565b6200014e816200012f565b81146200015a57600080fd5b50565b6000815190506200016e8162000143565b92915050565b600080fd5b600080fd5b6000601f19601f8301169050919050565b7f4e487b7100000000000000000000000000000000000000000000000000000000600052604160045260246000fd5b620001c9826200017e565b810181811067ffffffffffffffff82111715620001eb57620001ea6200018f565b5b80604052505050565b600062000200620000fb565b90506200020e8282620001be565b919050565b600067ffffffffffffffff8211156200023157620002306200018f565b5b6200023c826200017e565b9050602081019050919050565b60005b83811015620002695780820151818401526020810190506200024c565b60008484015250505050565b60006200028c620002868462000213565b620001f4565b905082815260208101848484011115620002ab57620002aa62000179565b5b620002b884828562000249565b509392505050565b600082601f830112620002d857620002d762000174565b5b8151620002ea84826020860162000275565b91505092915050565b6000806000606084860312156200030f576200030e62000105565b5b60006200031f868287016200015d565b935050602062000332868287016200015d565b925050604084015167ffffffffffffffff8111156200035657620003556200010a565b5b6200036486828701620002c0565b9150509250925092565b600081519050919050565b7f4e487b7100000000000000000000000000000000000000000000000000000000600052602260045260246000fd5b60006002820490506001821680620003c157607f821691505b602082108103620003d757620003d662000379565b5b50919050565b60008190508160005260206000209050919050565b60006020601f8301049050919050565b600082821b905092915050565b600060088302620004417fffffffffffffffffffffffffffffffffffffffffffffffffffffffffffffffff8262000402565b6200044d868362000402565b95508019841693508086168417925050509392505050565b6000819050919050565b6000819050919050565b60006200049a620004946200048e8462000465565b6200046f565b62000465565b9050919050565b6000819050919050565b620004b68362000479565b620004ce620004c582620004a1565b8484546200040f565b825550505050565b600090565b620004e5620004d6565b620004f2818484620004ab565b505050565b5b818110156200051a576200050e600082620004db565b600181019050620004f8565b5050565b601f82111562000569576200053381620003dd565b6200053e84620003f2565b810160208510156200054e578190505b620005666200055d85620003f2565b830182620004f7565b50505b505050565b600082821c905092915050565b60006200058e600019846008026200056e565b1980831691505092915050565b6000620005a983836200057b565b9150826002028217905092915050565b620005c4826200036e565b67ffffffffffffffff811115620005e057620005df6200018f565b5b620005ec8254620003a8565b620005f98282856200051e565b600060209050601f8311600181146200063157600084156200061c578287015190505b6200062885826200059b565b86555062000698565b601f1984166200064186620003dd565b60005b828110156200066b5784890151825560018201915060208501945060208101905062000644565b868310156200068b578489015162000687601f8916826200057b565b8355505b6001600288020188555050505b505050505050565b610ad480620006b06000396000f3fe6080604052600436106100865760003560e01c806396132521116100595780639613252114610123578063a37dda2c1461014e578063a5d737ac14610179578063aa8c217c14610183578063f3a504f2146101ae57610086565b8063109e94cf1461008b57806312065fe0146100b65780633fafa127146100e157806369d895751461010c575b600080fd5b34801561009757600080fd5b506100a06101d9565b6040516100ad919061068e565b60405180910390f35b3480156100c257600080fd5b506100cb6101fd565b6040516100d891906106c2565b60405180910390f35b3480156100ed57600080fd5b506100f6610205565b604051610103919061076d565b60405180910390f35b34801561011857600080fd5b50610121610293565b005b34801561012f57600080fd5b50610138610486565b60405161014591906107aa565b60405180910390f35b34801561015a57600080fd5b50610163610499565b604051610170919061068e565b60405180910390f35b6101816104bf565b005b34801561018f57600080fd5b50610198610634565b6040516101a591906106c2565b60405180910390f35b3480156101ba57600080fd5b506101c361063a565b6040516101d091906107aa565b60405180910390f35b60008054906101000a900473ffffffffffffffffffffffffffffffffffffffff1681565b600047905090565b60048054610212906107f4565b80601f016020809104026020016040519081016040528092919081815260200182805461023e906107f4565b801561028b5780601f106102605761010080835404028352916020019161028b565b820191906000526020600020905b81548152906001019060200180831161026e57829003601f168201915b505050505081565b60008054906101000a900473ffffffffffffffffffffffffffffffffffffffff1673ffffffffffffffffffffffffffffffffffffffff163373ffffffffffffffffffffffffffffffffffffffff1614610321576040517f08c379a000000000000000000000000000000000000000000000000000000000815260040161031890610871565b60405180910390fd5b600360009054906101000a900460ff16801561034a5750600360019054906101000a900460ff16155b610389576040517f08c379a0000000000000000000000000000000000000000000000000000000008152600401610380906108dd565b60405180910390fd5b600160009054906101000a900473ffffffffffffffffffffffffffffffffffffffff1673ffffffffffffffffffffffffffffffffffffffff166108fc6002549081150290604051600060405180830381858888f193505050501580156103f3573d6000803e3d6000fd5b506001600360016101000a81548160ff021916908315150217905550600160009054906101000a900473ffffffffffffffffffffffffffffffffffffffff1673ffffffffffffffffffffffffffffffffffffffff167ff1e482cbb262d173bce7d49f1f10ba8c01c3d9d8ab9791ab8119bd43b1a4ff90600254600460405161047c929190610996565b60405180910390a2565b600360019054906101000a900460ff1681565b600160009054906101000a900473ffffffffffffffffffffffffffffffffffffffff1681565b60008054906101000a900473ffffffffffffffffffffffffffffffffffffffff1673ffffffffffffffffffffffffffffffffffffffff163373ffffffffffffffffffffffffffffffffffffffff161461054d576040517f08c379a000000000000000000000000000000000000000000000000000000000815260040161054490610a12565b60405180910390fd5b600360009054906101000a900460ff161561059d576040517f08c379a000000000000000000000000000000000000000000000000000000000815260040161059490610a7e565b60405180910390fd5b346002819055506001600360006101000a81548160ff02191690831515021790555060008054906101000a900473ffffffffffffffffffffffffffffffffffffffff1673ffffffffffffffffffffffffffffffffffffffff167fa695ab567fbde53c295fb2c5981c19ddcad2b37a84ddb040db80010012a34d0d600254600460405161062a929190610996565b60405180910390a2565b60025481565b600360009054906101000a900460ff1681565b600073ffffffffffffffffffffffffffffffffffffffff82169050919050565b60006106788261064d565b9050919050565b6106888161066d565b82525050565b60006020820190506106a3600083018461067f565b92915050565b6000819050919050565b6106bc816106a9565b82525050565b60006020820190506106d760008301846106b3565b92915050565b600081519050919050565b600082825260208201905092915050565b60005b838110156107175780820151818401526020810190506106fc565b60008484015250505050565b6000601f19601f8301169050919050565b600061073f826106dd565b61074981856106e8565b93506107598185602086016106f9565b61076281610723565b840191505092915050565b600060208201905081810360008301526107878184610734565b905092915050565b60008115159050919050565b6107a48161078f565b82525050565b60006020820190506107bf600083018461079b565b92915050565b7f4e487b7100000000000000000000000000000000000000000000000000000000600052602260045260246000fd5b6000600282049050600182168061080c57607f821691505b60208210810361081f5761081e6107c5565b5b50919050565b7f4f6e6c7920636c69656e742063616e2072656c65617365000000000000000000600082015250565b600061085b6017836106e8565b915061086682610825565b602082019050919050565b6000602082019050818103600083015261088a8161084e565b9050919050565b7f496e76616c696420737461746500000000000000000000000000000000000000600082015250565b60006108c7600d836106e8565b91506108d282610891565b602082019050919050565b600060208201905081810360008301526108f6816108ba565b9050919050565b60008190508160005260206000209050919050565b6000815461091f816107f4565b61092981866106e8565b94506001821660008114610944576001811461095a5761098d565b60ff19831686528115156020028601935061098d565b610963856108fd565b60005b8381101561098557815481890152600182019150602081019050610966565b808801955050505b50505092915050565b60006040820190506109ab60008301856106b3565b81810360208301526109bd8184610912565b90509392505050565b7f4f6e6c7920636c69656e742063616e2066756e64000000000000000000000000600082015250565b60006109fc6014836106e8565b9150610a07826109c6565b602082019050919050565b60006020820190508181036000830152610a2b816109ef565b9050919050565b7f416c72656164792066756e646564000000000000000000000000000000000000600082015250565b6000610a68600e836106e8565b9150610a7382610a32565b602082019050919050565b60006020820190508181036000830152610a9781610a5b565b905091905056fea264697066735822122098ea8b9902176d86265cb22e5d12664275cd75db97d9ba907f57b785314ce43464736f6c63430008130033",
  "linkReferences": {},
  "deployedLinkReferences": {}
}